{
  "contractName": "Trickle",
  "abi": [
    {
      "anonymous": false,
      "inputs": [
        {
          "indexed": false,
          "name": "agreementId",
          "type": "uint256"
        },
        {
          "indexed": false,
          "name": "token",
          "type": "address"
        },
        {
          "indexed": true,
          "name": "recipient",
          "type": "address"
        },
        {
          "indexed": true,
          "name": "sender",
          "type": "address"
        },
        {
          "indexed": false,
          "name": "start",
          "type": "uint256"
        },
        {
          "indexed": false,
          "name": "duration",
          "type": "uint256"
        },
        {
          "indexed": false,
          "name": "totalAmount",
          "type": "uint256"
        }
      ],
      "name": "AgreementCreated",
      "type": "event"
    },
    {
      "anonymous": false,
      "inputs": [
        {
          "indexed": false,
          "name": "agreementId",
          "type": "uint256"
        },
        {
          "indexed": false,
          "name": "token",
          "type": "address"
        },
        {
          "indexed": true,
          "name": "recipient",
          "type": "address"
        },
        {
          "indexed": true,
          "name": "sender",
          "type": "address"
        },
        {
          "indexed": false,
          "name": "start",
          "type": "uint256"
        },
        {
          "indexed": false,
          "name": "endedAt",
          "type": "uint256"
        },
        {
          "indexed": false,
          "name": "amountReleased",
          "type": "uint256"
        },
        {
          "indexed": false,
          "name": "amountCancelled",
          "type": "uint256"
        }
      ],
      "name": "AgreementCancelled",
      "type": "event"
    },
    {
      "anonymous": false,
      "inputs": [
        {
          "indexed": false,
          "name": "agreementId",
          "type": "uint256"
        },
        {
          "indexed": false,
          "name": "token",
          "type": "address"
        },
        {
          "indexed": true,
          "name": "recipient",
          "type": "address"
        },
        {
          "indexed": true,
          "name": "sender",
          "type": "address"
        },
        {
          "indexed": false,
          "name": "amountReleased",
          "type": "uint256"
        },
        {
          "indexed": false,
          "name": "withdrawAt",
          "type": "uint256"
        }
      ],
      "name": "Withdraw",
      "type": "event"
    },
    {
      "constant": false,
      "inputs": [
        {
          "name": "token",
          "type": "address"
        },
        {
          "name": "recipient",
          "type": "address"
        },
        {
          "name": "totalAmount",
          "type": "uint256"
        },
        {
          "name": "duration",
          "type": "uint256"
        },
        {
          "name": "start",
          "type": "uint256"
        }
      ],
      "name": "createAgreement",
      "outputs": [
        {
          "name": "agreementId",
          "type": "uint256"
        }
      ],
      "payable": false,
      "stateMutability": "nonpayable",
      "type": "function"
    },
    {
      "constant": true,
      "inputs": [
        {
          "name": "agreementId",
          "type": "uint256"
        }
      ],
      "name": "getAgreement",
      "outputs": [
        {
          "name": "token",
          "type": "address"
        },
        {
          "name": "recipient",
          "type": "address"
        },
        {
          "name": "sender",
          "type": "address"
        },
        {
          "name": "start",
          "type": "uint256"
        },
        {
          "name": "duration",
          "type": "uint256"
        },
        {
          "name": "totalAmount",
          "type": "uint256"
        },
        {
          "name": "releasedAmount",
          "type": "uint256"
        }
      ],
      "payable": false,
      "stateMutability": "view",
      "type": "function"
    },
    {
      "constant": false,
      "inputs": [
        {
          "name": "agreementId",
          "type": "uint256"
        }
      ],
      "name": "withdrawTokens",
      "outputs": [],
      "payable": false,
      "stateMutability": "nonpayable",
      "type": "function"
    },
    {
      "constant": false,
      "inputs": [
        {
          "name": "agreementId",
          "type": "uint256"
        }
      ],
      "name": "cancelAgreement",
      "outputs": [],
      "payable": false,
      "stateMutability": "nonpayable",
      "type": "function"
    }
  ],
  "bytecode": "0x608060405234801561001057600080fd5b50610a7f806100206000396000f3fe608060405234801561001057600080fd5b5060043610610068577c01000000000000000000000000000000000000000000000000000000006000350463315a095d811461006d5780634f9f6fe61461008c5780635686b54b146100f05780639aebccc81461010d575b600080fd5b61008a6004803603602081101561008357600080fd5b5035610161565b005b6100a9600480360360208110156100a257600080fd5b5035610393565b60408051600160a060020a039889168152968816602088015294909616858501526060850192909252608084015260a083015260c082019290925290519081900360e00190f35b61008a6004803603602081101561010657600080fd5b50356103df565b61014f600480360360a081101561012357600080fd5b50600160a060020a03813581169160208101359091169060408101359060608101359060800135610622565b60408051918252519081900360200190f35b600054811115801561017257508015155b6101dd57604080517f08c379a000000000000000000000000000000000000000000000000000000000815260206004820152601b60248201527f496e76616c69642061677265656d656e74207370656369666965640000000000604482015290519081900360640190fd5b60006101e8826108a5565b9050600081116101f757600080fd5b6000828152600160205260409020600681015461021a908363ffffffff6108d816565b600682015580546001820154604080517fa9059cbb000000000000000000000000000000000000000000000000000000008152600160a060020a039283166004820152602481018690529051919092169163a9059cbb9160448083019260209291908290030181600087803b15801561029257600080fd5b505af11580156102a6573d6000803e3d6000fd5b505050506040513d60208110156102bc57600080fd5b505060028101546001820154825460408051878152600160a060020a03928316602082015280820187905242606082015290519382169392909116917fae7c0fdf04394e630f0f88db0daac3232a0f060314499da12bfabe13dc9988ae9181900360800190a380600501548160060154141561038e5760008381526001602081905260408220805473ffffffffffffffffffffffffffffffffffffffff199081168255918101805483169055600281018054909216909155600381018290556004810182905560058101829055600601555b505050565b60009081526001602081905260409091208054918101546002820154600383015460048401546005850154600690950154600160a060020a039687169794871696909316949193909290565b6000818152600160205260409020600201548190600160a060020a0316331461040757600080fd5b61041082610161565b6104186109fb565b506000828152600160208181526040808420815160e0810183528154600160a060020a039081168252948201548516938101939093526002810154909316908201526003820154606082015260048201546080820152600582015460a0820181905260069092015460c082018190529092909161049b908363ffffffff6108f316565b90508260000151600160a060020a031663a9059cbb8460400151836040518363ffffffff167c01000000000000000000000000000000000000000000000000000000000281526004018083600160a060020a0316600160a060020a0316815260200182815260200192505050602060405180830381600087803b15801561052157600080fd5b505af1158015610535573d6000803e3d6000fd5b505050506040513d602081101561054b57600080fd5b5050604080840151602085810151865160608089015186518c8152600160a060020a03938416958101959095528487015242908401526080830187905260a0830186905293519284169316917f4975aea2b6ac27f280533501bfa107e167e78cf177cb8e5b204a5b8002ff007c9181900360c00190a35050506000918252506001602081905260408220805473ffffffffffffffffffffffffffffffffffffffff19908116825591810180548316905560028101805490921690915560038101829055600481018290556005810182905560060155565b600080831161063057600080fd5b6000841161063d57600080fd5b6000821161064a57600080fd5b600160a060020a03861661065d57600080fd5b600160a060020a03851661067057600080fd5b506000805460019081018083556040805160e081018252600160a060020a03808b168083528a8216602080850191825233858701908152606086018b8152608087018d815260a088018f815260c089018d81528b8e528c86528a8e2099518a54908a1673ffffffffffffffffffffffffffffffffffffffff19918216178b5596519c8a0180549d8a169d88169d909d17909c5592516002890180549189169190961617948590559051600388015551600480880191909155905160058701819055985160069096019590955585517f23b872dd00000000000000000000000000000000000000000000000000000000815291909316938101939093523060248401526044830195909552915192946323b872dd93606480840194939192918390030190829087803b1580156107a457600080fd5b505af11580156107b8573d6000803e3d6000fd5b505050506040513d60208110156107ce57600080fd5b506107d990506109fb565b50600081815260016020818152604092839020835160e0810185528154600160a060020a0390811680835294830154811682850181905260028401549091168287018190526003840154606080850182905260048601546080808701829052600588015460a080890182905260069099015460c08901528b518d8152998a019a909a52888b01939093529087015285019590955294519094927f74e5b32885ce57c27cdb3a71ad16f4e346fd82775bded0439a27b87b551b2f5192908290030190a35095945050505050565b6000818152600160205260408120600601546108d0906108c484610908565b9063ffffffff6108f316565b90505b919050565b6000828201838110156108ea57600080fd5b90505b92915050565b60008282111561090257600080fd5b50900390565b600081815260016020526040812060048101546003909101546109309163ffffffff6108d816565b421061094e57506000818152600160205260409020600501546108d3565b600082815260016020526040902060048101546003909101546109ab919061099f9061098190429063ffffffff6108f316565b6000868152600160205260409020600501549063ffffffff6109b216565b9063ffffffff6109d916565b90506108d3565b6000826109c1575060006108ed565b828202828482816109ce57fe5b04146108ea57600080fd5b60008082116109e757600080fd5b60008284816109f257fe5b04949350505050565b6040518060e001604052806000600160a060020a031681526020016000600160a060020a031681526020016000600160a060020a0316815260200160008152602001600081526020016000815260200160008152509056fea165627a7a72305820c25acb93883f9613f98b336804752d704b5c8c7adf40b67d3a0322f411d19bb60029",
  "source": "pragma solidity 0.5.7;\n\nimport \"openzeppelin-solidity/contracts/math/SafeMath.sol\";\nimport \"openzeppelin-solidity/contracts/token/ERC20/IERC20.sol\";\n\ncontract Trickle {\n    \n    using SafeMath for uint256;\n    \n    event AgreementCreated(uint256 agreementId, address token, address indexed recipient, address indexed sender, uint256 start, uint256 duration, uint256 totalAmount);\n    event AgreementCancelled(uint256 agreementId, address token, address indexed recipient, address indexed sender, uint256 start, uint256 endedAt, uint256 amountReleased, uint256 amountCancelled);\n    event Withdraw(uint256 agreementId, address token, address indexed recipient, address indexed sender, uint256 amountReleased, uint256 withdrawAt);\n    \n    uint256 private lastAgreementId;\n    \n    struct Agreement {\n        IERC20 token;\n        address recipient;\n        address sender;\n        uint256 start;\n        uint256 duration;\n        uint256 totalAmount;\n        uint256 releasedAmount;\n    }\n    \n    mapping (uint256 => Agreement) private agreements;\n    \n    modifier senderOnly(uint256 agreementId) {\n        require (msg.sender == agreements[agreementId].sender);\n        _;\n    }\n    \n    function createAgreement(IERC20 token, address recipient, uint256 totalAmount, uint256 duration, uint256 start) external returns (uint256 agreementId) {\n        require(duration > 0);\n        require(totalAmount > 0);\n        require(start > 0);\n        require(token != IERC20(0x0));\n        require(recipient != address(0x0));\n        \n        agreementId = ++lastAgreementId;\n        \n        agreements[agreementId] = Agreement({\n            token: token,\n            recipient: recipient,\n            start: start,\n            duration: duration,\n            totalAmount: totalAmount,\n            sender: msg.sender,\n            releasedAmount: 0\n        });\n        \n        token.transferFrom(agreements[agreementId].sender, address(this), agreements[agreementId].totalAmount);\n        \n        Agreement memory record = agreements[agreementId];\n        emit AgreementCreated(\n            agreementId,\n            address(record.token),\n            record.recipient,\n            record.sender,\n            record.start,\n            record.duration,\n            record.totalAmount\n        );\n        \n        return agreementId;\n    }\n    \n    function getAgreement(uint256 agreementId) external view returns (\n        IERC20 token, \n        address recipient, \n        address sender, \n        uint256 start, \n        uint256 duration,\n        uint256 totalAmount,\n        uint256 releasedAmount\n    ) {\n        Agreement storage record = agreements[agreementId];\n        \n        return (record.token, record.recipient, record.sender, record.start, record.duration, record.totalAmount, record.releasedAmount);\n    }\n    \n    function withdrawTokens(uint256 agreementId) public {\n        require(agreementId <= lastAgreementId && agreementId != 0, \"Invalid agreement specified\");\n        \n        uint256 unreleased = withdrawAmount(agreementId);\n        require(unreleased > 0);\n        \n        Agreement storage record = agreements[agreementId];\n        \n        record.releasedAmount = record.releasedAmount.add(unreleased);\n        record.token.transfer(record.recipient, unreleased);\n        \n        emit Withdraw(\n            agreementId,\n            address(record.token),\n            record.recipient,\n            record.sender,\n            unreleased,\n            block.timestamp\n        );\n        \n        if (record.releasedAmount == record.totalAmount) {\n            delete agreements[agreementId];\n        }\n    }\n    \n    function cancelAgreement(uint256 agreementId) senderOnly(agreementId) external {\n        withdrawTokens(agreementId);\n        Agreement memory record = agreements[agreementId];\n        \n        uint256 releasedAmount = record.releasedAmount;\n        uint256 cancelledAmount = record.totalAmount.sub(releasedAmount); \n        \n        record.token.transfer(record.sender, cancelledAmount);\n        \n        emit AgreementCancelled(\n            agreementId,\n            address(record.token),\n            record.recipient,\n            record.sender,\n            record.start,\n            block.timestamp,\n            releasedAmount,\n            cancelledAmount\n        );\n        \n        delete agreements[agreementId];\n    }\n    \n    function withdrawAmount (uint256 agreementId) private view returns (uint256) {\n        return availableAmount(agreementId).sub(agreements[agreementId].releasedAmount);\n    }\n    \n    function availableAmount(uint256 agreementId) private view returns (uint256) {\n        if (block.timestamp >= agreements[agreementId].start.add(agreements[agreementId].duration)) {\n            return agreements[agreementId].totalAmount;\n        } else {\n            return agreements[agreementId].totalAmount.mul(\n                block.timestamp.sub(agreements[agreementId].start)\n            ).div(agreements[agreementId].duration);\n        }\n    }\n}",
  "sourcePath": "/Users/derain/Projects/trickle-dapp-backend/contracts/Trickle.sol",
  "compiler": {
    "name": "solc",
    "version": "0.5.7+commit.6da8b019.Emscripten.clang"
  },
  "schemaVersion": "3.0.6",
  "updatedAt": "2019-04-19T21:27:00.471Z",
  "devdoc": {
    "methods": {}
  },
  "userdoc": {
    "methods": {}
  }
}